{
  "address": "0x4D8c7c4A75710591337420716098D7D7adfd57E1",
  "abi": [
    {
      "inputs": [
        {
          "internalType": "address",
          "name": "vrfCoordinatorV2",
          "type": "address"
        },
        {
          "internalType": "uint64",
          "name": "subcriptionId",
          "type": "uint64"
        },
        {
          "internalType": "bytes32",
          "name": "gasLane",
          "type": "bytes32"
        },
        {
          "internalType": "uint32",
          "name": "callbackGasLimit",
          "type": "uint32"
        },
        {
          "internalType": "string[3]",
          "name": "nftTokenURIs",
          "type": "string[3]"
        },
        {
          "internalType": "uint256",
          "name": "mintFee",
          "type": "uint256"
        }
      ],
      "stateMutability": "nonpayable",
      "type": "constructor"
    },
    {
      "inputs": [
        {
          "internalType": "address",
          "name": "have",
          "type": "address"
        },
        {
          "internalType": "address",
          "name": "want",
          "type": "address"
        }
      ],
      "name": "OnlyCoordinatorCanFulfill",
      "type": "error"
    },
    {
      "inputs": [],
      "name": "RandomIpfsNft__NeedMoreETHSent",
      "type": "error"
    },
    {
      "inputs": [],
      "name": "RandomIpfsNft__RangeOutOfBounds",
      "type": "error"
    },
    {
      "inputs": [],
      "name": "RandomIpfsNft__TransferFailed",
      "type": "error"
    },
    {
      "anonymous": false,
      "inputs": [
        {
          "indexed": true,
          "internalType": "address",
          "name": "owner",
          "type": "address"
        },
        {
          "indexed": true,
          "internalType": "address",
          "name": "approved",
          "type": "address"
        },
        {
          "indexed": true,
          "internalType": "uint256",
          "name": "tokenId",
          "type": "uint256"
        }
      ],
      "name": "Approval",
      "type": "event"
    },
    {
      "anonymous": false,
      "inputs": [
        {
          "indexed": true,
          "internalType": "address",
          "name": "owner",
          "type": "address"
        },
        {
          "indexed": true,
          "internalType": "address",
          "name": "operator",
          "type": "address"
        },
        {
          "indexed": false,
          "internalType": "bool",
          "name": "approved",
          "type": "bool"
        }
      ],
      "name": "ApprovalForAll",
      "type": "event"
    },
    {
      "anonymous": false,
      "inputs": [
        {
          "indexed": false,
          "internalType": "uint256",
          "name": "_fromTokenId",
          "type": "uint256"
        },
        {
          "indexed": false,
          "internalType": "uint256",
          "name": "_toTokenId",
          "type": "uint256"
        }
      ],
      "name": "BatchMetadataUpdate",
      "type": "event"
    },
    {
      "anonymous": false,
      "inputs": [
        {
          "indexed": false,
          "internalType": "uint256",
          "name": "_tokenId",
          "type": "uint256"
        }
      ],
      "name": "MetadataUpdate",
      "type": "event"
    },
    {
      "anonymous": false,
      "inputs": [
        {
          "indexed": false,
          "internalType": "enum RandomIpfsNft.Breed",
          "name": "nftBreed",
          "type": "uint8"
        },
        {
          "indexed": false,
          "internalType": "address",
          "name": "minter",
          "type": "address"
        }
      ],
      "name": "NftMinted",
      "type": "event"
    },
    {
      "anonymous": false,
      "inputs": [
        {
          "indexed": true,
          "internalType": "uint256",
          "name": "requestId",
          "type": "uint256"
        },
        {
          "indexed": false,
          "internalType": "address",
          "name": "requester",
          "type": "address"
        }
      ],
      "name": "NftRequested",
      "type": "event"
    },
    {
      "anonymous": false,
      "inputs": [
        {
          "indexed": true,
          "internalType": "address",
          "name": "previousOwner",
          "type": "address"
        },
        {
          "indexed": true,
          "internalType": "address",
          "name": "newOwner",
          "type": "address"
        }
      ],
      "name": "OwnershipTransferred",
      "type": "event"
    },
    {
      "anonymous": false,
      "inputs": [
        {
          "indexed": true,
          "internalType": "address",
          "name": "from",
          "type": "address"
        },
        {
          "indexed": true,
          "internalType": "address",
          "name": "to",
          "type": "address"
        },
        {
          "indexed": true,
          "internalType": "uint256",
          "name": "tokenId",
          "type": "uint256"
        }
      ],
      "name": "Transfer",
      "type": "event"
    },
    {
      "inputs": [
        {
          "internalType": "address",
          "name": "to",
          "type": "address"
        },
        {
          "internalType": "uint256",
          "name": "tokenId",
          "type": "uint256"
        }
      ],
      "name": "approve",
      "outputs": [],
      "stateMutability": "nonpayable",
      "type": "function"
    },
    {
      "inputs": [
        {
          "internalType": "address",
          "name": "owner",
          "type": "address"
        }
      ],
      "name": "balanceOf",
      "outputs": [
        {
          "internalType": "uint256",
          "name": "",
          "type": "uint256"
        }
      ],
      "stateMutability": "view",
      "type": "function"
    },
    {
      "inputs": [
        {
          "internalType": "uint256",
          "name": "tokenId",
          "type": "uint256"
        }
      ],
      "name": "getApproved",
      "outputs": [
        {
          "internalType": "address",
          "name": "",
          "type": "address"
        }
      ],
      "stateMutability": "view",
      "type": "function"
    },
    {
      "inputs": [
        {
          "internalType": "uint256",
          "name": "moddedRng",
          "type": "uint256"
        }
      ],
      "name": "getBreedFromModdedRng",
      "outputs": [
        {
          "internalType": "enum RandomIpfsNft.Breed",
          "name": "",
          "type": "uint8"
        }
      ],
      "stateMutability": "pure",
      "type": "function"
    },
    {
      "inputs": [],
      "name": "getChanceArray",
      "outputs": [
        {
          "internalType": "uint256[3]",
          "name": "",
          "type": "uint256[3]"
        }
      ],
      "stateMutability": "pure",
      "type": "function"
    },
    {
      "inputs": [],
      "name": "getMintFee",
      "outputs": [
        {
          "internalType": "uint256",
          "name": "",
          "type": "uint256"
        }
      ],
      "stateMutability": "view",
      "type": "function"
    },
    {
      "inputs": [
        {
          "internalType": "uint256",
          "name": "index",
          "type": "uint256"
        }
      ],
      "name": "getNftTokenUris",
      "outputs": [
        {
          "internalType": "string",
          "name": "",
          "type": "string"
        }
      ],
      "stateMutability": "view",
      "type": "function"
    },
    {
      "inputs": [],
      "name": "getTokenCounter",
      "outputs": [
        {
          "internalType": "uint256",
          "name": "",
          "type": "uint256"
        }
      ],
      "stateMutability": "view",
      "type": "function"
    },
    {
      "inputs": [
        {
          "internalType": "address",
          "name": "owner",
          "type": "address"
        },
        {
          "internalType": "address",
          "name": "operator",
          "type": "address"
        }
      ],
      "name": "isApprovedForAll",
      "outputs": [
        {
          "internalType": "bool",
          "name": "",
          "type": "bool"
        }
      ],
      "stateMutability": "view",
      "type": "function"
    },
    {
      "inputs": [],
      "name": "name",
      "outputs": [
        {
          "internalType": "string",
          "name": "",
          "type": "string"
        }
      ],
      "stateMutability": "view",
      "type": "function"
    },
    {
      "inputs": [],
      "name": "owner",
      "outputs": [
        {
          "internalType": "address",
          "name": "",
          "type": "address"
        }
      ],
      "stateMutability": "view",
      "type": "function"
    },
    {
      "inputs": [
        {
          "internalType": "uint256",
          "name": "tokenId",
          "type": "uint256"
        }
      ],
      "name": "ownerOf",
      "outputs": [
        {
          "internalType": "address",
          "name": "",
          "type": "address"
        }
      ],
      "stateMutability": "view",
      "type": "function"
    },
    {
      "inputs": [
        {
          "internalType": "uint256",
          "name": "requestId",
          "type": "uint256"
        },
        {
          "internalType": "uint256[]",
          "name": "randomWords",
          "type": "uint256[]"
        }
      ],
      "name": "rawFulfillRandomWords",
      "outputs": [],
      "stateMutability": "nonpayable",
      "type": "function"
    },
    {
      "inputs": [],
      "name": "renounceOwnership",
      "outputs": [],
      "stateMutability": "nonpayable",
      "type": "function"
    },
    {
      "inputs": [],
      "name": "requestNft",
      "outputs": [
        {
          "internalType": "uint256",
          "name": "requestId",
          "type": "uint256"
        }
      ],
      "stateMutability": "payable",
      "type": "function"
    },
    {
      "inputs": [
        {
          "internalType": "uint256",
          "name": "",
          "type": "uint256"
        }
      ],
      "name": "s_requestIdToSender",
      "outputs": [
        {
          "internalType": "address",
          "name": "",
          "type": "address"
        }
      ],
      "stateMutability": "view",
      "type": "function"
    },
    {
      "inputs": [],
      "name": "s_tokenCounter",
      "outputs": [
        {
          "internalType": "uint256",
          "name": "",
          "type": "uint256"
        }
      ],
      "stateMutability": "view",
      "type": "function"
    },
    {
      "inputs": [
        {
          "internalType": "address",
          "name": "from",
          "type": "address"
        },
        {
          "internalType": "address",
          "name": "to",
          "type": "address"
        },
        {
          "internalType": "uint256",
          "name": "tokenId",
          "type": "uint256"
        }
      ],
      "name": "safeTransferFrom",
      "outputs": [],
      "stateMutability": "nonpayable",
      "type": "function"
    },
    {
      "inputs": [
        {
          "internalType": "address",
          "name": "from",
          "type": "address"
        },
        {
          "internalType": "address",
          "name": "to",
          "type": "address"
        },
        {
          "internalType": "uint256",
          "name": "tokenId",
          "type": "uint256"
        },
        {
          "internalType": "bytes",
          "name": "data",
          "type": "bytes"
        }
      ],
      "name": "safeTransferFrom",
      "outputs": [],
      "stateMutability": "nonpayable",
      "type": "function"
    },
    {
      "inputs": [
        {
          "internalType": "address",
          "name": "operator",
          "type": "address"
        },
        {
          "internalType": "bool",
          "name": "approved",
          "type": "bool"
        }
      ],
      "name": "setApprovalForAll",
      "outputs": [],
      "stateMutability": "nonpayable",
      "type": "function"
    },
    {
      "inputs": [
        {
          "internalType": "bytes4",
          "name": "interfaceId",
          "type": "bytes4"
        }
      ],
      "name": "supportsInterface",
      "outputs": [
        {
          "internalType": "bool",
          "name": "",
          "type": "bool"
        }
      ],
      "stateMutability": "view",
      "type": "function"
    },
    {
      "inputs": [],
      "name": "symbol",
      "outputs": [
        {
          "internalType": "string",
          "name": "",
          "type": "string"
        }
      ],
      "stateMutability": "view",
      "type": "function"
    },
    {
      "inputs": [
        {
          "internalType": "uint256",
          "name": "tokenId",
          "type": "uint256"
        }
      ],
      "name": "tokenURI",
      "outputs": [
        {
          "internalType": "string",
          "name": "",
          "type": "string"
        }
      ],
      "stateMutability": "view",
      "type": "function"
    },
    {
      "inputs": [
        {
          "internalType": "address",
          "name": "from",
          "type": "address"
        },
        {
          "internalType": "address",
          "name": "to",
          "type": "address"
        },
        {
          "internalType": "uint256",
          "name": "tokenId",
          "type": "uint256"
        }
      ],
      "name": "transferFrom",
      "outputs": [],
      "stateMutability": "nonpayable",
      "type": "function"
    },
    {
      "inputs": [
        {
          "internalType": "address",
          "name": "newOwner",
          "type": "address"
        }
      ],
      "name": "transferOwnership",
      "outputs": [],
      "stateMutability": "nonpayable",
      "type": "function"
    },
    {
      "inputs": [],
      "name": "withDraw",
      "outputs": [],
      "stateMutability": "nonpayable",
      "type": "function"
    }
  ],
  "transactionHash": "0x74d980ce6fe9f6c3632fab6c5141bf5cec4fe8c4e9c45be4197156b6d60a6fd1",
  "args": [
    "0x8103B0A8A00be2DDC778e6e7eaa21791Cd364625",
    "4626",
    "0x474e34a077df58807dbe9c96d3c009b23b3c6d0cce433e59bbf5b34f823bc56c",
    "500000",
    [
      "ipfs://QmbiSooYqGnafXk73XZTxw5NKgM5gDha9cFCouTPoUfGif",
      "ipfs://QmUeapUmuda19ADKS5SqQ1N6ro1n9MCsT6KFm6eYda34JZ",
      "ipfs://Qmeys65BmhsDpq6ufYyeNGqwHWNnGRzXdSZpdrLMxakrE9"
    ],
    "10000000000000000"
  ],
  "numDeployments": 2,
  "solcInputHash": "3f9705ab93008b1f03c7641ba5198459",
  "bytecode": "0x6101406040523480156200001257600080fd5b50604051620044c5380380620044c5833981810160405281019062000038919062000813565b6040518060400160405280600f81526020017f52616e646f6d2049504653204e465400000000000000000000000000000000008152506040518060400160405280600381526020017f52494e0000000000000000000000000000000000000000000000000000000000815250878073ffffffffffffffffffffffffffffffffffffffff1660808173ffffffffffffffffffffffffffffffffffffffff1660601b81525050508160009080519060200190620000f5929190620002a6565b5080600190805190602001906200010e929190620002a6565b5050506200013162000125620001d860201b60201c565b620001e060201b60201c565b8573ffffffffffffffffffffffffffffffffffffffff1660a08173ffffffffffffffffffffffffffffffffffffffff1660601b815250508467ffffffffffffffff1660c08167ffffffffffffffff1660c01b815250508360e081815250508263ffffffff166101008163ffffffff1660e01b8152505081600a906003620001ba92919062000337565b50806101208181525050600060098190555050505050505062000933565b600033905090565b6000600760009054906101000a900473ffffffffffffffffffffffffffffffffffffffff16905081600760006101000a81548173ffffffffffffffffffffffffffffffffffffffff021916908373ffffffffffffffffffffffffffffffffffffffff1602179055508173ffffffffffffffffffffffffffffffffffffffff168173ffffffffffffffffffffffffffffffffffffffff167f8be0079c531659141344cd1fd0a4f28419497f9722a3daafe3b4186f6b6457e060405160405180910390a35050565b828054620002b490620008fd565b90600052602060002090601f016020900481019282620002d8576000855562000324565b82601f10620002f357805160ff191683800117855562000324565b8280016001018555821562000324579182015b828111156200032357825182559160200191906001019062000306565b5b5090506200033391906200039e565b5090565b8280548282559060005260206000209081019282156200038b579160200282015b828111156200038a57825182908051906020019062000379929190620002a6565b509160200191906001019062000358565b5b5090506200039a9190620003bd565b5090565b5b80821115620003b95760008160009055506001016200039f565b5090565b5b80821115620003e15760008181620003d79190620003e5565b50600101620003be565b5090565b508054620003f390620008fd565b6000825580601f1062000407575062000428565b601f0160209004906000526020600020908101906200042791906200039e565b5b50565b6000604051905090565b600080fd5b600080fd5b600073ffffffffffffffffffffffffffffffffffffffff82169050919050565b60006200046c826200043f565b9050919050565b6200047e816200045f565b81146200048a57600080fd5b50565b6000815190506200049e8162000473565b92915050565b600067ffffffffffffffff82169050919050565b620004c381620004a4565b8114620004cf57600080fd5b50565b600081519050620004e381620004b8565b92915050565b6000819050919050565b620004fe81620004e9565b81146200050a57600080fd5b50565b6000815190506200051e81620004f3565b92915050565b600063ffffffff82169050919050565b6200053f8162000524565b81146200054b57600080fd5b50565b6000815190506200055f8162000534565b92915050565b600080fd5b6000601f19601f8301169050919050565b7f4e487b7100000000000000000000000000000000000000000000000000000000600052604160045260246000fd5b620005b5826200056a565b810181811067ffffffffffffffff82111715620005d757620005d66200057b565b5b80604052505050565b6000620005ec6200042b565b9050620005fa8282620005aa565b919050565b600067ffffffffffffffff8211156200061d576200061c6200057b565b5b602082029050919050565b600080fd5b600080fd5b600067ffffffffffffffff82111562000650576200064f6200057b565b5b6200065b826200056a565b9050602081019050919050565b60005b83811015620006885780820151818401526020810190506200066b565b8381111562000698576000848401525b50505050565b6000620006b5620006af8462000632565b620005e0565b905082815260208101848484011115620006d457620006d36200062d565b5b620006e184828562000668565b509392505050565b600082601f83011262000701576200070062000565565b5b8151620007138482602086016200069e565b91505092915050565b6000620007336200072d84620005ff565b620005e0565b9050806020840283018581111562000750576200074f62000628565b5b835b818110156200079e57805167ffffffffffffffff81111562000779576200077862000565565b5b808601620007888982620006e9565b8552602085019450505060208101905062000752565b5050509392505050565b600082601f830112620007c057620007bf62000565565b5b6003620007cf8482856200071c565b91505092915050565b6000819050919050565b620007ed81620007d8565b8114620007f957600080fd5b50565b6000815190506200080d81620007e2565b92915050565b60008060008060008060c0878903121562000833576200083262000435565b5b60006200084389828a016200048d565b96505060206200085689828a01620004d2565b95505060406200086989828a016200050d565b94505060606200087c89828a016200054e565b935050608087015167ffffffffffffffff811115620008a0576200089f6200043a565b5b620008ae89828a01620007a8565b92505060a0620008c189828a01620007fc565b9150509295509295509295565b7f4e487b7100000000000000000000000000000000000000000000000000000000600052602260045260246000fd5b600060028204905060018216806200091657607f821691505b602082108114156200092d576200092c620008ce565b5b50919050565b60805160601c60a05160601c60c05160c01c60e0516101005160e01c61012051613b286200099d60003960008181610cca0152610ec301526000610f9d01526000610f5901526000610f7a01526000610f1d01526000818161095001526109a40152613b286000f3fe6080604052600436106101815760003560e01c806370a08231116100d1578063a36f573b1161008a578063b88d4fde11610064578063b88d4fde14610577578063c87b56dd146105a0578063e985e9c5146105dd578063f2fde38b1461061a57610181565b8063a36f573b146104df578063a51cccf31461051c578063aa1524911461055957610181565b806370a08231146103e1578063715018a61461041e5780637a5caab3146104355780638da5cb5b1461046057806395d89b411461048b578063a22cb465146104b657610181565b80631fe543e31161013e57806342842e0e1161011857806342842e0e146103255780635dacf5f41461034e5780636352211e146103795780636e02007d146103b657610181565b80631fe543e31461029657806323b872dd146102bf578063424f58d0146102e857610181565b806301ffc9a71461018657806306fdde03146101c3578063081812fc146101ee578063095ea7b31461022b5780630b21a83b146102545780630fdb1c101461027f575b600080fd5b34801561019257600080fd5b506101ad60048036038101906101a8919061273b565b610643565b6040516101ba9190612783565b60405180910390f35b3480156101cf57600080fd5b506101d86106a4565b6040516101e59190612837565b60405180910390f35b3480156101fa57600080fd5b506102156004803603810190610210919061288f565b610736565b60405161022291906128fd565b60405180910390f35b34801561023757600080fd5b50610252600480360381019061024d9190612944565b61077c565b005b34801561026057600080fd5b50610269610894565b6040516102769190612993565b60405180910390f35b34801561028b57600080fd5b5061029461089a565b005b3480156102a257600080fd5b506102bd60048036038101906102b89190612af6565b61094e565b005b3480156102cb57600080fd5b506102e660048036038101906102e19190612b52565b610a0e565b005b3480156102f457600080fd5b5061030f600480360381019061030a919061288f565b610a6e565b60405161031c9190612837565b60405180910390f35b34801561033157600080fd5b5061034c60048036038101906103479190612b52565b610b1e565b005b34801561035a57600080fd5b50610363610b3e565b6040516103709190612c50565b60405180910390f35b34801561038557600080fd5b506103a0600480360381019061039b919061288f565b610b69565b6040516103ad91906128fd565b60405180910390f35b3480156103c257600080fd5b506103cb610bf0565b6040516103d89190612993565b60405180910390f35b3480156103ed57600080fd5b5061040860048036038101906104039190612c6b565b610bfa565b6040516104159190612993565b60405180910390f35b34801561042a57600080fd5b50610433610cb2565b005b34801561044157600080fd5b5061044a610cc6565b6040516104579190612993565b60405180910390f35b34801561046c57600080fd5b50610475610cee565b60405161048291906128fd565b60405180910390f35b34801561049757600080fd5b506104a0610d18565b6040516104ad9190612837565b60405180910390f35b3480156104c257600080fd5b506104dd60048036038101906104d89190612cc4565b610daa565b005b3480156104eb57600080fd5b506105066004803603810190610501919061288f565b610dc0565b60405161051391906128fd565b60405180910390f35b34801561052857600080fd5b50610543600480360381019061053e919061288f565b610df3565b6040516105509190612d7b565b60405180910390f35b610561610ebf565b60405161056e9190612993565b60405180910390f35b34801561058357600080fd5b5061059e60048036038101906105999190612e4b565b6110bf565b005b3480156105ac57600080fd5b506105c760048036038101906105c2919061288f565b611121565b6040516105d49190612837565b60405180910390f35b3480156105e957600080fd5b5061060460048036038101906105ff9190612ece565b611234565b6040516106119190612783565b60405180910390f35b34801561062657600080fd5b50610641600480360381019061063c9190612c6b565b6112c8565b005b6000634906490660e01b7bffffffffffffffffffffffffffffffffffffffffffffffffffffffff1916827bffffffffffffffffffffffffffffffffffffffffffffffffffffffff1916148061069d575061069c8261134c565b5b9050919050565b6060600080546106b390612f3d565b80601f01602080910402602001604051908101604052809291908181526020018280546106df90612f3d565b801561072c5780601f106107015761010080835404028352916020019161072c565b820191906000526020600020905b81548152906001019060200180831161070f57829003601f168201915b5050505050905090565b60006107418261142e565b6004600083815260200190815260200160002060009054906101000a900473ffffffffffffffffffffffffffffffffffffffff169050919050565b600061078782610b69565b90508073ffffffffffffffffffffffffffffffffffffffff168373ffffffffffffffffffffffffffffffffffffffff1614156107f8576040517f08c379a00000000000000000000000000000000000000000000000000000000081526004016107ef90612fe1565b60405180910390fd5b8073ffffffffffffffffffffffffffffffffffffffff16610817611479565b73ffffffffffffffffffffffffffffffffffffffff161480610846575061084581610840611479565b611234565b5b610885576040517f08c379a000000000000000000000000000000000000000000000000000000000815260040161087c90613073565b60405180910390fd5b61088f8383611481565b505050565b60095481565b6108a261153a565b600047905060003373ffffffffffffffffffffffffffffffffffffffff16826040516108cd906130c4565b60006040518083038185875af1925050503d806000811461090a576040519150601f19603f3d011682016040523d82523d6000602084013e61090f565b606091505b505090508061094a576040517fca7e25b700000000000000000000000000000000000000000000000000000000815260040160405180910390fd5b5050565b7f000000000000000000000000000000000000000000000000000000000000000073ffffffffffffffffffffffffffffffffffffffff163373ffffffffffffffffffffffffffffffffffffffff1614610a0057337f00000000000000000000000000000000000000000000000000000000000000006040517f1cf993f40000000000000000000000000000000000000000000000000000000081526004016109f79291906130d9565b60405180910390fd5b610a0a82826115b8565b5050565b610a1f610a19611479565b82611752565b610a5e576040517f08c379a0000000000000000000000000000000000000000000000000000000008152600401610a5590613174565b60405180910390fd5b610a698383836117e7565b505050565b6060600a8281548110610a8457610a83613194565b5b906000526020600020018054610a9990612f3d565b80601f0160208091040260200160405190810160405280929190818152602001828054610ac590612f3d565b8015610b125780601f10610ae757610100808354040283529160200191610b12565b820191906000526020600020905b815481529060010190602001808311610af557829003601f168201915b50505050509050919050565b610b39838383604051806020016040528060008152506110bf565b505050565b610b4661260a565b6040518060600160405280600a8152602001601e81526020016064815250905090565b600080610b7583611ae1565b9050600073ffffffffffffffffffffffffffffffffffffffff168173ffffffffffffffffffffffffffffffffffffffff161415610be7576040517f08c379a0000000000000000000000000000000000000000000000000000000008152600401610bde9061320f565b60405180910390fd5b80915050919050565b6000600954905090565b60008073ffffffffffffffffffffffffffffffffffffffff168273ffffffffffffffffffffffffffffffffffffffff161415610c6b576040517f08c379a0000000000000000000000000000000000000000000000000000000008152600401610c62906132a1565b60405180910390fd5b600360008373ffffffffffffffffffffffffffffffffffffffff1673ffffffffffffffffffffffffffffffffffffffff168152602001908152602001600020549050919050565b610cba61153a565b610cc46000611b1e565b565b60007f0000000000000000000000000000000000000000000000000000000000000000905090565b6000600760009054906101000a900473ffffffffffffffffffffffffffffffffffffffff16905090565b606060018054610d2790612f3d565b80601f0160208091040260200160405190810160405280929190818152602001828054610d5390612f3d565b8015610da05780601f10610d7557610100808354040283529160200191610da0565b820191906000526020600020905b815481529060010190602001808311610d8357829003601f168201915b5050505050905090565b610dbc610db5611479565b8383611be4565b5050565b60086020528060005260406000206000915054906101000a900473ffffffffffffffffffffffffffffffffffffffff1681565b600080600090506000610e04610b3e565b905060005b6003811015610e8757828510158015610e385750818160038110610e3057610e2f613194565b5b602002015185105b15610e5a57806002811115610e5057610e4f612d04565b5b9350505050610eba565b818160038110610e6d57610e6c613194565b5b602002015192508080610e7f906132f0565b915050610e09565b506040517f12806c9d00000000000000000000000000000000000000000000000000000000815260040160405180910390fd5b919050565b60007f0000000000000000000000000000000000000000000000000000000000000000341015610f1b576040517fb90f491000000000000000000000000000000000000000000000000000000000815260040160405180910390fd5b7f000000000000000000000000000000000000000000000000000000000000000073ffffffffffffffffffffffffffffffffffffffff16635d3b1d307f00000000000000000000000000000000000000000000000000000000000000007f000000000000000000000000000000000000000000000000000000000000000060037f000000000000000000000000000000000000000000000000000000000000000060016040518663ffffffff1660e01b8152600401610fde9594939291906133b1565b602060405180830381600087803b158015610ff857600080fd5b505af115801561100c573d6000803e3d6000fd5b505050506040513d601f19601f820116820180604052508101906110309190613419565b9050336008600083815260200190815260200160002060006101000a81548173ffffffffffffffffffffffffffffffffffffffff021916908373ffffffffffffffffffffffffffffffffffffffff160217905550807ff873236e6cc0ecc5be1a9a35c95ee5b8d1ac4cc7bfef0cc5060391d6cc98e26b336040516110b491906128fd565b60405180910390a290565b6110d06110ca611479565b83611752565b61110f576040517f08c379a000000000000000000000000000000000000000000000000000000000815260040161110690613174565b60405180910390fd5b61111b84848484611d51565b50505050565b606061112c8261142e565b600060066000848152602001908152602001600020805461114c90612f3d565b80601f016020809104026020016040519081016040528092919081815260200182805461117890612f3d565b80156111c55780601f1061119a576101008083540402835291602001916111c5565b820191906000526020600020905b8154815290600101906020018083116111a857829003601f168201915b5050505050905060006111d6611dad565b90506000815114156111ec57819250505061122f565b600082511115611221578082604051602001611209929190613482565b6040516020818303038152906040529250505061122f565b61122a84611dc4565b925050505b919050565b6000600560008473ffffffffffffffffffffffffffffffffffffffff1673ffffffffffffffffffffffffffffffffffffffff16815260200190815260200160002060008373ffffffffffffffffffffffffffffffffffffffff1673ffffffffffffffffffffffffffffffffffffffff16815260200190815260200160002060009054906101000a900460ff16905092915050565b6112d061153a565b600073ffffffffffffffffffffffffffffffffffffffff168173ffffffffffffffffffffffffffffffffffffffff161415611340576040517f08c379a000000000000000000000000000000000000000000000000000000000815260040161133790613518565b60405180910390fd5b61134981611b1e565b50565b60007f80ac58cd000000000000000000000000000000000000000000000000000000007bffffffffffffffffffffffffffffffffffffffffffffffffffffffff1916827bffffffffffffffffffffffffffffffffffffffffffffffffffffffff1916148061141757507f5b5e139f000000000000000000000000000000000000000000000000000000007bffffffffffffffffffffffffffffffffffffffffffffffffffffffff1916827bffffffffffffffffffffffffffffffffffffffffffffffffffffffff1916145b80611427575061142682611e2c565b5b9050919050565b61143781611e96565b611476576040517f08c379a000000000000000000000000000000000000000000000000000000000815260040161146d9061320f565b60405180910390fd5b50565b600033905090565b816004600083815260200190815260200160002060006101000a81548173ffffffffffffffffffffffffffffffffffffffff021916908373ffffffffffffffffffffffffffffffffffffffff160217905550808273ffffffffffffffffffffffffffffffffffffffff166114f483610b69565b73ffffffffffffffffffffffffffffffffffffffff167f8c5be1e5ebec7d5bd14f71427d1e84f3dd0314c0f7b2291e5b200ac8c7c3b92560405160405180910390a45050565b611542611479565b73ffffffffffffffffffffffffffffffffffffffff16611560610cee565b73ffffffffffffffffffffffffffffffffffffffff16146115b6576040517f08c379a00000000000000000000000000000000000000000000000000000000081526004016115ad90613584565b60405180910390fd5b565b60006008600084815260200190815260200160002060009054906101000a900473ffffffffffffffffffffffffffffffffffffffff16905060006009549050600160095461160691906135a4565b600981905550600060648460008151811061162457611623613194565b5b60200260200101516116369190613629565b9050600061164382610df3565b905061164f8484611ed7565b61171183600a83600281111561166857611667612d04565b5b8154811061167957611678613194565b5b90600052602060002001805461168e90612f3d565b80601f01602080910402602001604051908101604052809291908181526020018280546116ba90612f3d565b80156117075780601f106116dc57610100808354040283529160200191611707565b820191906000526020600020905b8154815290600101906020018083116116ea57829003601f168201915b5050505050611ef5565b7f8a269f26b688e110e9cbd887d163dab35cae678fa353a0292de532c0cac1ecdc818560405161174292919061365a565b60405180910390a1505050505050565b60008061175e83610b69565b90508073ffffffffffffffffffffffffffffffffffffffff168473ffffffffffffffffffffffffffffffffffffffff1614806117a0575061179f8185611234565b5b806117de57508373ffffffffffffffffffffffffffffffffffffffff166117c684610736565b73ffffffffffffffffffffffffffffffffffffffff16145b91505092915050565b8273ffffffffffffffffffffffffffffffffffffffff1661180782610b69565b73ffffffffffffffffffffffffffffffffffffffff161461185d576040517f08c379a0000000000000000000000000000000000000000000000000000000008152600401611854906136f5565b60405180910390fd5b600073ffffffffffffffffffffffffffffffffffffffff168273ffffffffffffffffffffffffffffffffffffffff1614156118cd576040517f08c379a00000000000000000000000000000000000000000000000000000000081526004016118c490613787565b60405180910390fd5b6118da8383836001611fa0565b8273ffffffffffffffffffffffffffffffffffffffff166118fa82610b69565b73ffffffffffffffffffffffffffffffffffffffff1614611950576040517f08c379a0000000000000000000000000000000000000000000000000000000008152600401611947906136f5565b60405180910390fd5b6004600082815260200190815260200160002060006101000a81549073ffffffffffffffffffffffffffffffffffffffff02191690556001600360008573ffffffffffffffffffffffffffffffffffffffff1673ffffffffffffffffffffffffffffffffffffffff168152602001908152602001600020600082825403925050819055506001600360008473ffffffffffffffffffffffffffffffffffffffff1673ffffffffffffffffffffffffffffffffffffffff16815260200190815260200160002060008282540192505081905550816002600083815260200190815260200160002060006101000a81548173ffffffffffffffffffffffffffffffffffffffff021916908373ffffffffffffffffffffffffffffffffffffffff160217905550808273ffffffffffffffffffffffffffffffffffffffff168473ffffffffffffffffffffffffffffffffffffffff167fddf252ad1be2c89b69c2b068fc378daa952ba7f163c4a11628f55a4df523b3ef60405160405180910390a4611adc8383836001611fa6565b505050565b60006002600083815260200190815260200160002060009054906101000a900473ffffffffffffffffffffffffffffffffffffffff169050919050565b6000600760009054906101000a900473ffffffffffffffffffffffffffffffffffffffff16905081600760006101000a81548173ffffffffffffffffffffffffffffffffffffffff021916908373ffffffffffffffffffffffffffffffffffffffff1602179055508173ffffffffffffffffffffffffffffffffffffffff168173ffffffffffffffffffffffffffffffffffffffff167f8be0079c531659141344cd1fd0a4f28419497f9722a3daafe3b4186f6b6457e060405160405180910390a35050565b8173ffffffffffffffffffffffffffffffffffffffff168373ffffffffffffffffffffffffffffffffffffffff161415611c53576040517f08c379a0000000000000000000000000000000000000000000000000000000008152600401611c4a906137f3565b60405180910390fd5b80600560008573ffffffffffffffffffffffffffffffffffffffff1673ffffffffffffffffffffffffffffffffffffffff16815260200190815260200160002060008473ffffffffffffffffffffffffffffffffffffffff1673ffffffffffffffffffffffffffffffffffffffff16815260200190815260200160002060006101000a81548160ff0219169083151502179055508173ffffffffffffffffffffffffffffffffffffffff168373ffffffffffffffffffffffffffffffffffffffff167f17307eab39ab6107e8899845ad3d59bd9653f200f220920489ca2b5937696c3183604051611d449190612783565b60405180910390a3505050565b611d5c8484846117e7565b611d6884848484611fac565b611da7576040517f08c379a0000000000000000000000000000000000000000000000000000000008152600401611d9e90613885565b60405180910390fd5b50505050565b606060405180602001604052806000815250905090565b6060611dcf8261142e565b6000611dd9611dad565b90506000815111611df95760405180602001604052806000815250611e24565b80611e0384612143565b604051602001611e14929190613482565b6040516020818303038152906040525b915050919050565b60007f01ffc9a7000000000000000000000000000000000000000000000000000000007bffffffffffffffffffffffffffffffffffffffffffffffffffffffff1916827bffffffffffffffffffffffffffffffffffffffffffffffffffffffff1916149050919050565b60008073ffffffffffffffffffffffffffffffffffffffff16611eb883611ae1565b73ffffffffffffffffffffffffffffffffffffffff1614159050919050565b611ef182826040518060200160405280600081525061221b565b5050565b611efe82611e96565b611f3d576040517f08c379a0000000000000000000000000000000000000000000000000000000008152600401611f3490613917565b60405180910390fd5b80600660008481526020019081526020016000209080519060200190611f6492919061262c565b507ff8e1a15aba9398e019f0b49df1a4fde98ee17ae345cb5f6b5e2c27f5033e8ce782604051611f949190612993565b60405180910390a15050565b50505050565b50505050565b6000611fcd8473ffffffffffffffffffffffffffffffffffffffff16612276565b15612136578373ffffffffffffffffffffffffffffffffffffffff1663150b7a02611ff6611479565b8786866040518563ffffffff1660e01b8152600401612018949392919061398c565b602060405180830381600087803b15801561203257600080fd5b505af192505050801561206357506040513d601f19601f8201168201806040525081019061206091906139ed565b60015b6120e6573d8060008114612093576040519150601f19603f3d011682016040523d82523d6000602084013e612098565b606091505b506000815114156120de576040517f08c379a00000000000000000000000000000000000000000000000000000000081526004016120d590613885565b60405180910390fd5b805181602001fd5b63150b7a0260e01b7bffffffffffffffffffffffffffffffffffffffffffffffffffffffff1916817bffffffffffffffffffffffffffffffffffffffffffffffffffffffff19161491505061213b565b600190505b949350505050565b60606000600161215284612299565b01905060008167ffffffffffffffff811115612171576121706129b3565b5b6040519080825280601f01601f1916602001820160405280156121a35781602001600182028036833780820191505090505b509050600082602001820190505b600115612210578080600190039150507f3031323334353637383961626364656600000000000000000000000000000000600a86061a8153600a85816121fa576121f96135fa565b5b049450600085141561220b57612210565b6121b1565b819350505050919050565b61222583836123ec565b6122326000848484611fac565b612271576040517f08c379a000000000000000000000000000000000000000000000000000000000815260040161226890613885565b60405180910390fd5b505050565b6000808273ffffffffffffffffffffffffffffffffffffffff163b119050919050565b600080600090507a184f03e93ff9f4daa797ed6e38ed64bf6a1f01000000000000000083106122f7577a184f03e93ff9f4daa797ed6e38ed64bf6a1f01000000000000000083816122ed576122ec6135fa565b5b0492506040810190505b6d04ee2d6d415b85acef81000000008310612334576d04ee2d6d415b85acef8100000000838161232a576123296135fa565b5b0492506020810190505b662386f26fc10000831061236357662386f26fc100008381612359576123586135fa565b5b0492506010810190505b6305f5e100831061238c576305f5e1008381612382576123816135fa565b5b0492506008810190505b61271083106123b15761271083816123a7576123a66135fa565b5b0492506004810190505b606483106123d457606483816123ca576123c96135fa565b5b0492506002810190505b600a83106123e3576001810190505b80915050919050565b600073ffffffffffffffffffffffffffffffffffffffff168273ffffffffffffffffffffffffffffffffffffffff16141561245c576040517f08c379a000000000000000000000000000000000000000000000000000000000815260040161245390613a66565b60405180910390fd5b61246581611e96565b156124a5576040517f08c379a000000000000000000000000000000000000000000000000000000000815260040161249c90613ad2565b60405180910390fd5b6124b3600083836001611fa0565b6124bc81611e96565b156124fc576040517f08c379a00000000000000000000000000000000000000000000000000000000081526004016124f390613ad2565b60405180910390fd5b6001600360008473ffffffffffffffffffffffffffffffffffffffff1673ffffffffffffffffffffffffffffffffffffffff16815260200190815260200160002060008282540192505081905550816002600083815260200190815260200160002060006101000a81548173ffffffffffffffffffffffffffffffffffffffff021916908373ffffffffffffffffffffffffffffffffffffffff160217905550808273ffffffffffffffffffffffffffffffffffffffff16600073ffffffffffffffffffffffffffffffffffffffff167fddf252ad1be2c89b69c2b068fc378daa952ba7f163c4a11628f55a4df523b3ef60405160405180910390a4612606600083836001611fa6565b5050565b6040518060600160405280600390602082028036833780820191505090505090565b82805461263890612f3d565b90600052602060002090601f01602090048101928261265a57600085556126a1565b82601f1061267357805160ff19168380011785556126a1565b828001600101855582156126a1579182015b828111156126a0578251825591602001919060010190612685565b5b5090506126ae91906126b2565b5090565b5b808211156126cb5760008160009055506001016126b3565b5090565b6000604051905090565b600080fd5b600080fd5b60007fffffffff0000000000000000000000000000000000000000000000000000000082169050919050565b612718816126e3565b811461272357600080fd5b50565b6000813590506127358161270f565b92915050565b600060208284031215612751576127506126d9565b5b600061275f84828501612726565b91505092915050565b60008115159050919050565b61277d81612768565b82525050565b60006020820190506127986000830184612774565b92915050565b600081519050919050565b600082825260208201905092915050565b60005b838110156127d85780820151818401526020810190506127bd565b838111156127e7576000848401525b50505050565b6000601f19601f8301169050919050565b60006128098261279e565b61281381856127a9565b93506128238185602086016127ba565b61282c816127ed565b840191505092915050565b6000602082019050818103600083015261285181846127fe565b905092915050565b6000819050919050565b61286c81612859565b811461287757600080fd5b50565b60008135905061288981612863565b92915050565b6000602082840312156128a5576128a46126d9565b5b60006128b38482850161287a565b91505092915050565b600073ffffffffffffffffffffffffffffffffffffffff82169050919050565b60006128e7826128bc565b9050919050565b6128f7816128dc565b82525050565b600060208201905061291260008301846128ee565b92915050565b612921816128dc565b811461292c57600080fd5b50565b60008135905061293e81612918565b92915050565b6000806040838503121561295b5761295a6126d9565b5b60006129698582860161292f565b925050602061297a8582860161287a565b9150509250929050565b61298d81612859565b82525050565b60006020820190506129a86000830184612984565b92915050565b600080fd5b7f4e487b7100000000000000000000000000000000000000000000000000000000600052604160045260246000fd5b6129eb826127ed565b810181811067ffffffffffffffff82111715612a0a57612a096129b3565b5b80604052505050565b6000612a1d6126cf565b9050612a2982826129e2565b919050565b600067ffffffffffffffff821115612a4957612a486129b3565b5b602082029050602081019050919050565b600080fd5b6000612a72612a6d84612a2e565b612a13565b90508083825260208201905060208402830185811115612a9557612a94612a5a565b5b835b81811015612abe5780612aaa888261287a565b845260208401935050602081019050612a97565b5050509392505050565b600082601f830112612add57612adc6129ae565b5b8135612aed848260208601612a5f565b91505092915050565b60008060408385031215612b0d57612b0c6126d9565b5b6000612b1b8582860161287a565b925050602083013567ffffffffffffffff811115612b3c57612b3b6126de565b5b612b4885828601612ac8565b9150509250929050565b600080600060608486031215612b6b57612b6a6126d9565b5b6000612b798682870161292f565b9350506020612b8a8682870161292f565b9250506040612b9b8682870161287a565b9150509250925092565b600060039050919050565b600081905092915050565b6000819050919050565b612bce81612859565b82525050565b6000612be08383612bc5565b60208301905092915050565b6000602082019050919050565b612c0281612ba5565b612c0c8184612bb0565b9250612c1782612bbb565b8060005b83811015612c48578151612c2f8782612bd4565b9650612c3a83612bec565b925050600181019050612c1b565b505050505050565b6000606082019050612c656000830184612bf9565b92915050565b600060208284031215612c8157612c806126d9565b5b6000612c8f8482850161292f565b91505092915050565b612ca181612768565b8114612cac57600080fd5b50565b600081359050612cbe81612c98565b92915050565b60008060408385031215612cdb57612cda6126d9565b5b6000612ce98582860161292f565b9250506020612cfa85828601612caf565b9150509250929050565b7f4e487b7100000000000000000000000000000000000000000000000000000000600052602160045260246000fd5b60038110612d4457612d43612d04565b5b50565b6000819050612d5582612d33565b919050565b6000612d6582612d47565b9050919050565b612d7581612d5a565b82525050565b6000602082019050612d906000830184612d6c565b92915050565b600080fd5b600067ffffffffffffffff821115612db657612db56129b3565b5b612dbf826127ed565b9050602081019050919050565b82818337600083830152505050565b6000612dee612de984612d9b565b612a13565b905082815260208101848484011115612e0a57612e09612d96565b5b612e15848285612dcc565b509392505050565b600082601f830112612e3257612e316129ae565b5b8135612e42848260208601612ddb565b91505092915050565b60008060008060808587031215612e6557612e646126d9565b5b6000612e738782880161292f565b9450506020612e848782880161292f565b9350506040612e958782880161287a565b925050606085013567ffffffffffffffff811115612eb657612eb56126de565b5b612ec287828801612e1d565b91505092959194509250565b60008060408385031215612ee557612ee46126d9565b5b6000612ef38582860161292f565b9250506020612f048582860161292f565b9150509250929050565b7f4e487b7100000000000000000000000000000000000000000000000000000000600052602260045260246000fd5b60006002820490506001821680612f5557607f821691505b60208210811415612f6957612f68612f0e565b5b50919050565b7f4552433732313a20617070726f76616c20746f2063757272656e74206f776e6560008201527f7200000000000000000000000000000000000000000000000000000000000000602082015250565b6000612fcb6021836127a9565b9150612fd682612f6f565b604082019050919050565b60006020820190508181036000830152612ffa81612fbe565b9050919050565b7f4552433732313a20617070726f76652063616c6c6572206973206e6f7420746f60008201527f6b656e206f776e6572206f7220617070726f76656420666f7220616c6c000000602082015250565b600061305d603d836127a9565b915061306882613001565b604082019050919050565b6000602082019050818103600083015261308c81613050565b9050919050565b600081905092915050565b50565b60006130ae600083613093565b91506130b98261309e565b600082019050919050565b60006130cf826130a1565b9150819050919050565b60006040820190506130ee60008301856128ee565b6130fb60208301846128ee565b9392505050565b7f4552433732313a2063616c6c6572206973206e6f7420746f6b656e206f776e6560008201527f72206f7220617070726f76656400000000000000000000000000000000000000602082015250565b600061315e602d836127a9565b915061316982613102565b604082019050919050565b6000602082019050818103600083015261318d81613151565b9050919050565b7f4e487b7100000000000000000000000000000000000000000000000000000000600052603260045260246000fd5b7f4552433732313a20696e76616c696420746f6b656e2049440000000000000000600082015250565b60006131f96018836127a9565b9150613204826131c3565b602082019050919050565b60006020820190508181036000830152613228816131ec565b9050919050565b7f4552433732313a2061646472657373207a65726f206973206e6f74206120766160008201527f6c6964206f776e65720000000000000000000000000000000000000000000000602082015250565b600061328b6029836127a9565b91506132968261322f565b604082019050919050565b600060208201905081810360008301526132ba8161327e565b9050919050565b7f4e487b7100000000000000000000000000000000000000000000000000000000600052601160045260246000fd5b60006132fb82612859565b91507fffffffffffffffffffffffffffffffffffffffffffffffffffffffffffffffff82141561332e5761332d6132c1565b5b600182019050919050565b6000819050919050565b61334c81613339565b82525050565b600067ffffffffffffffff82169050919050565b61336f81613352565b82525050565b600061ffff82169050919050565b61338c81613375565b82525050565b600063ffffffff82169050919050565b6133ab81613392565b82525050565b600060a0820190506133c66000830188613343565b6133d36020830187613366565b6133e06040830186613383565b6133ed60608301856133a2565b6133fa60808301846133a2565b9695505050505050565b60008151905061341381612863565b92915050565b60006020828403121561342f5761342e6126d9565b5b600061343d84828501613404565b91505092915050565b600081905092915050565b600061345c8261279e565b6134668185613446565b93506134768185602086016127ba565b80840191505092915050565b600061348e8285613451565b915061349a8284613451565b91508190509392505050565b7f4f776e61626c653a206e6577206f776e657220697320746865207a65726f206160008201527f6464726573730000000000000000000000000000000000000000000000000000602082015250565b60006135026026836127a9565b915061350d826134a6565b604082019050919050565b60006020820190508181036000830152613531816134f5565b9050919050565b7f4f776e61626c653a2063616c6c6572206973206e6f7420746865206f776e6572600082015250565b600061356e6020836127a9565b915061357982613538565b602082019050919050565b6000602082019050818103600083015261359d81613561565b9050919050565b60006135af82612859565b91506135ba83612859565b9250827fffffffffffffffffffffffffffffffffffffffffffffffffffffffffffffffff038211156135ef576135ee6132c1565b5b828201905092915050565b7f4e487b7100000000000000000000000000000000000000000000000000000000600052601260045260246000fd5b600061363482612859565b915061363f83612859565b92508261364f5761364e6135fa565b5b828206905092915050565b600060408201905061366f6000830185612d6c565b61367c60208301846128ee565b9392505050565b7f4552433732313a207472616e736665722066726f6d20696e636f72726563742060008201527f6f776e6572000000000000000000000000000000000000000000000000000000602082015250565b60006136df6025836127a9565b91506136ea82613683565b604082019050919050565b6000602082019050818103600083015261370e816136d2565b9050919050565b7f4552433732313a207472616e7366657220746f20746865207a65726f2061646460008201527f7265737300000000000000000000000000000000000000000000000000000000602082015250565b60006137716024836127a9565b915061377c82613715565b604082019050919050565b600060208201905081810360008301526137a081613764565b9050919050565b7f4552433732313a20617070726f766520746f2063616c6c657200000000000000600082015250565b60006137dd6019836127a9565b91506137e8826137a7565b602082019050919050565b6000602082019050818103600083015261380c816137d0565b9050919050565b7f4552433732313a207472616e7366657220746f206e6f6e20455243373231526560008201527f63656976657220696d706c656d656e7465720000000000000000000000000000602082015250565b600061386f6032836127a9565b915061387a82613813565b604082019050919050565b6000602082019050818103600083015261389e81613862565b9050919050565b7f45524337323155524953746f726167653a2055524920736574206f66206e6f6e60008201527f6578697374656e7420746f6b656e000000000000000000000000000000000000602082015250565b6000613901602e836127a9565b915061390c826138a5565b604082019050919050565b60006020820190508181036000830152613930816138f4565b9050919050565b600081519050919050565b600082825260208201905092915050565b600061395e82613937565b6139688185613942565b93506139788185602086016127ba565b613981816127ed565b840191505092915050565b60006080820190506139a160008301876128ee565b6139ae60208301866128ee565b6139bb6040830185612984565b81810360608301526139cd8184613953565b905095945050505050565b6000815190506139e78161270f565b92915050565b600060208284031215613a0357613a026126d9565b5b6000613a11848285016139d8565b91505092915050565b7f4552433732313a206d696e7420746f20746865207a65726f2061646472657373600082015250565b6000613a506020836127a9565b9150613a5b82613a1a565b602082019050919050565b60006020820190508181036000830152613a7f81613a43565b9050919050565b7f4552433732313a20746f6b656e20616c7265616479206d696e74656400000000600082015250565b6000613abc601c836127a9565b9150613ac782613a86565b602082019050919050565b60006020820190508181036000830152613aeb81613aaf565b905091905056fea2646970667358221220dc100b94528684161e30fe7b95a8b5cf96cac6472950ca0ae0f97ced4630e33564736f6c63430008080033",
  "devdoc": {
    "kind": "dev",
    "methods": {
      "approve(address,uint256)": {
        "details": "See {IERC721-approve}."
      },
      "balanceOf(address)": {
        "details": "See {IERC721-balanceOf}."
      },
      "getApproved(uint256)": {
        "details": "See {IERC721-getApproved}."
      },
      "isApprovedForAll(address,address)": {
        "details": "See {IERC721-isApprovedForAll}."
      },
      "name()": {
        "details": "See {IERC721Metadata-name}."
      },
      "owner()": {
        "details": "Returns the address of the current owner."
      },
      "ownerOf(uint256)": {
        "details": "See {IERC721-ownerOf}."
      },
      "renounceOwnership()": {
        "details": "Leaves the contract without owner. It will not be possible to call `onlyOwner` functions. Can only be called by the current owner. NOTE: Renouncing ownership will leave the contract without an owner, thereby disabling any functionality that is only available to the owner."
      },
      "safeTransferFrom(address,address,uint256)": {
        "details": "See {IERC721-safeTransferFrom}."
      },
      "safeTransferFrom(address,address,uint256,bytes)": {
        "details": "See {IERC721-safeTransferFrom}."
      },
      "setApprovalForAll(address,bool)": {
        "details": "See {IERC721-setApprovalForAll}."
      },
      "supportsInterface(bytes4)": {
        "details": "See {IERC165-supportsInterface}"
      },
      "symbol()": {
        "details": "See {IERC721Metadata-symbol}."
      },
      "tokenURI(uint256)": {
        "details": "See {IERC721Metadata-tokenURI}."
      },
      "transferFrom(address,address,uint256)": {
        "details": "See {IERC721-transferFrom}."
      },
      "transferOwnership(address)": {
        "details": "Transfers ownership of the contract to a new account (`newOwner`). Can only be called by the current owner."
      }
    },
    "version": 1
  },
  "userdoc": {
    "kind": "user",
    "methods": {},
    "version": 1
  },
  "storageLayout": {
    "storage": [
      {
        "astId": 385,
        "contract": "contracts/token/RandomIpfsNft.sol:RandomIpfsNft",
        "label": "_name",
        "offset": 0,
        "slot": "0",
        "type": "t_string_storage"
      },
      {
        "astId": 387,
        "contract": "contracts/token/RandomIpfsNft.sol:RandomIpfsNft",
        "label": "_symbol",
        "offset": 0,
        "slot": "1",
        "type": "t_string_storage"
      },
      {
        "astId": 391,
        "contract": "contracts/token/RandomIpfsNft.sol:RandomIpfsNft",
        "label": "_owners",
        "offset": 0,
        "slot": "2",
        "type": "t_mapping(t_uint256,t_address)"
      },
      {
        "astId": 395,
        "contract": "contracts/token/RandomIpfsNft.sol:RandomIpfsNft",
        "label": "_balances",
        "offset": 0,
        "slot": "3",
        "type": "t_mapping(t_address,t_uint256)"
      },
      {
        "astId": 399,
        "contract": "contracts/token/RandomIpfsNft.sol:RandomIpfsNft",
        "label": "_tokenApprovals",
        "offset": 0,
        "slot": "4",
        "type": "t_mapping(t_uint256,t_address)"
      },
      {
        "astId": 405,
        "contract": "contracts/token/RandomIpfsNft.sol:RandomIpfsNft",
        "label": "_operatorApprovals",
        "offset": 0,
        "slot": "5",
        "type": "t_mapping(t_address,t_mapping(t_address,t_bool))"
      },
      {
        "astId": 1436,
        "contract": "contracts/token/RandomIpfsNft.sol:RandomIpfsNft",
        "label": "_tokenURIs",
        "offset": 0,
        "slot": "6",
        "type": "t_mapping(t_uint256,t_string_storage)"
      },
      {
        "astId": 161,
        "contract": "contracts/token/RandomIpfsNft.sol:RandomIpfsNft",
        "label": "_owner",
        "offset": 0,
        "slot": "7",
        "type": "t_address"
      },
      {
        "astId": 3697,
        "contract": "contracts/token/RandomIpfsNft.sol:RandomIpfsNft",
        "label": "s_requestIdToSender",
        "offset": 0,
        "slot": "8",
        "type": "t_mapping(t_uint256,t_address)"
      },
      {
        "astId": 3699,
        "contract": "contracts/token/RandomIpfsNft.sol:RandomIpfsNft",
        "label": "s_tokenCounter",
        "offset": 0,
        "slot": "9",
        "type": "t_uint256"
      },
      {
        "astId": 3705,
        "contract": "contracts/token/RandomIpfsNft.sol:RandomIpfsNft",
        "label": "s_nftTokenURIs",
        "offset": 0,
        "slot": "10",
        "type": "t_array(t_string_storage)dyn_storage"
      }
    ],
    "types": {
      "t_address": {
        "encoding": "inplace",
        "label": "address",
        "numberOfBytes": "20"
      },
      "t_array(t_string_storage)dyn_storage": {
        "base": "t_string_storage",
        "encoding": "dynamic_array",
        "label": "string[]",
        "numberOfBytes": "32"
      },
      "t_bool": {
        "encoding": "inplace",
        "label": "bool",
        "numberOfBytes": "1"
      },
      "t_mapping(t_address,t_bool)": {
        "encoding": "mapping",
        "key": "t_address",
        "label": "mapping(address => bool)",
        "numberOfBytes": "32",
        "value": "t_bool"
      },
      "t_mapping(t_address,t_mapping(t_address,t_bool))": {
        "encoding": "mapping",
        "key": "t_address",
        "label": "mapping(address => mapping(address => bool))",
        "numberOfBytes": "32",
        "value": "t_mapping(t_address,t_bool)"
      },
      "t_mapping(t_address,t_uint256)": {
        "encoding": "mapping",
        "key": "t_address",
        "label": "mapping(address => uint256)",
        "numberOfBytes": "32",
        "value": "t_uint256"
      },
      "t_mapping(t_uint256,t_address)": {
        "encoding": "mapping",
        "key": "t_uint256",
        "label": "mapping(uint256 => address)",
        "numberOfBytes": "32",
        "value": "t_address"
      },
      "t_mapping(t_uint256,t_string_storage)": {
        "encoding": "mapping",
        "key": "t_uint256",
        "label": "mapping(uint256 => string)",
        "numberOfBytes": "32",
        "value": "t_string_storage"
      },
      "t_string_storage": {
        "encoding": "bytes",
        "label": "string",
        "numberOfBytes": "32"
      },
      "t_uint256": {
        "encoding": "inplace",
        "label": "uint256",
        "numberOfBytes": "32"
      }
    }
  }
}